:020000040800F2
:1000000000C0002095910008797D00087F7D0008E0
:10001000857D00088B7D0008917D000800000000B0
:10002000000000000000000000000000977D0008B4
:10003000A37D000800000000AF7D0008BB7D000824
:10004000DD910008DD910008DD910008DD910008D8
:10005000DD910008DD910008DD910008DD910008C8
:10006000DD910008DD910008DD910008DD910008B8
:10007000DD910008DD910008DD910008DD910008A8
:10008000DD910008DD910008DD910008DD91000898
:10009000DD910008DD910008DD910008DD91000888
:1000A000DD910008DD910008DD910008DD91000878
:1000B000DD910008C97D0008DD910008DD91000890
:1000C000DD910008DD910008DD910008DD91000858
:1000D000DD910008DD7D0008DD910008DD9100085C
:1000E000DD910008DD910008DD910008DD91000838
:1000F000DD910008DD910008DD910008DD91000828
:10010000DD910008DD910008DD910008DD91000817
:10011000DD910008DD910008DD910008DD91000807
:10012000DD910008DD910008DD910008DD910008F7
:1001300000000000000000000000000000000000BF
:1001400000000000000000000000000000000000AF
:10015000000000000000000000000000000000009F
:10016000000000000000000000000000000000008F
:10017000000000000000000000000000000000007F
:10018000000000000000000000000000000000006F
:10019000000000000000000000000000000000005F
:1001A000000000000000000000000000000000004F
:1001B000000000000000000000000000000000003F
:1001C000000000000000000000000000000000002F
:1001D000000000000000000000000000000000001F
:0401E0005FF8E0F1F3
:1001E80010B5054C237833B9044B13B10448AFF369
:1001F80000800123237010BDC00000200000000013
:1002080048D2000808B5034B1BB103490348AFF3B4
:10021800008008BD00000000C400002048D200088B
:10022800034613F8012B002AFBD1181A013870472E
:1002380010F8012B11F8013B012A28BF9A42F7D088
:10024800D01A704781F0004102E000BF83F00043FC
:1002580030B54FEA41044FEA430594EA050F08BF59
:1002680090EA020F1FBF54EA000C55EA020C7FEA1D
:10027800645C7FEA655C00F0E2804FEA5454D4EB9A
:100288005555B8BF6D420CDD2C4480EA020281EA64
:10029800030382EA000083EA010180EA020281EA9C
:1002A8000303362D88BF30BD11F0004F4FEA0131EE
:1002B8004FF4801C4CEA113102D0404261EB4101FD
:1002C80013F0004F4FEA03334CEA133302D0524283
:1002D80063EB430394EA050F00F0A780A4F101043F
:1002E800D5F1200E0DDB02FA0EFC22FA05F2801879
:1002F80041F1000103FA0EF2801843FA05F359415F
:100308000EE0A5F120050EF1200E012A03FA0EFCDD
:1003180028BF4CF0020C43FA05F3C01851EBE37107
:1003280001F0004507D54FF0000EDCF1000C7EEB24
:1003380000006EEB0101B1F5801F1BD3B1F5001F62
:100348000CD349085FEA30004FEA3C0C04F1010481
:100358004FEA445212F5800F80F09A80BCF1004FAA
:1003680008BF5FEA500C50F1000041EB045141EA2C
:10037800050130BD5FEA4C0C404141EB0101013CF5
:1003880028BFB1F5801FE9D291F0000F04BF0146E4
:100398000020B1FA81F308BF2033A3F10B03B3F1B6
:1003A80020020CDA0C3208DD02F1140CC2F10C0246
:1003B80001FA0CF021FA02F10CE002F11402D8BFA4
:1003C800C2F1200C01FA02F120FA0CFCDCBF41EA70
:1003D8000C019040E41AA2BF01EB0451294330BD3F
:1003E8006FEA04041F3C1CDA0C340EDC04F114041C
:1003F800C4F1200220FA04F001FA02F340EA0300F3
:1004080021FA04F345EA030130BDC4F10C04C4F138
:10041800200220FA02F001FA04F340EA0300294618
:1004280030BD21FA04F0294630BD94F0000F83F462
:10043800801306BF81F480110134013D4EE77FEA45
:10044800645C18BF7FEA655C29D094EA050F08BF91
:1004580090EA020F05D054EA000C04BF1946104672
:1004680030BD91EA030F1EBF0021002030BD5FEAB6
:10047800545C05D14000494128BF41F0004130BDDE
:1004880014F580043CBF01F5801130BD01F0004532
:1004980045F0FE4141F470014FF0000030BD7FEAA5
:1004A800645C1ABF194610467FEA655C1CBF0B46A0
:1004B800024650EA013406BF52EA033591EA030FB7
:1004C80041F4002130BD00BF90F0000F04BF0021AF
:1004D800704730B54FF4806404F132044FF00005E2
:1004E8004FF0000150E700BF90F0000F04BF00215B
:1004F800704730B54FF4806404F1320410F00045C1
:1005080048BF40424FF000013EE700BF42004FEABB
:10051800E2014FEA31014FEA02701FBF12F07F4338
:1005280093F07F4F81F06051704732F07F4208BFEF
:10053800704793F07F4F04BF41F40021704730B5F6
:100548004FF4607401F0004521F000411CE700BF42
:1005580050EA010208BF704730B54FF000050AE0C5
:1005680050EA010208BF704730B511F0004502D5C6
:10057800404261EB41014FF4806404F132045FEAC8
:10058800915C3FF4D8AE4FF003025FEADC0C18BF71
:1005980003325FEADC0C18BF033202EBDC02C2F163
:1005A800200300FA03FC20FA02F001FA03FE40EAF5
:1005B8000E0021FA02F11444BDE600BF70B54FF0F9
:1005C800FF0C4CF4E06C1CEA11541DBF1CEA1355D7
:1005D80094EA0C0F95EA0C0F00F0DEF82C4481EA3F
:1005E800030621EA4C5123EA4C5350EA013518BF5F
:1005F80052EA033541F4801143F4801338D0A0FB4C
:1006080002CE4FF00005E1FB02E506F00042E0FBF8
:1006180003E54FF00006E1FB03569CF0000F18BFFE
:100628004EF0010EA4F1FF04B6F5007F64F54074A6
:1006380004D25FEA4E0E6D4146EB060642EAC62139
:1006480041EA55514FEAC52040EA5E504FEACE2EA6
:10065800B4F1FD0C88BFBCF5E06F1ED8BEF1004FA9
:1006680008BF5FEA500E50F1000041EB045170BD25
:1006780006F0004646EA010140EA020081EA030169
:10068800B4EB5C04C2BFD4EB0C0541EA045170BD65
:1006980041F480114FF0000E013C00F3AB8014F1DF
:1006A800360FDEBF002001F0004170BDC4F1000428
:1006B800203C35DA0C341BDC04F11404C4F12005A9
:1006C80000FA05F320FA04F001FA05F240EA020004
:1006D80001F0004221F0004110EBD37021FA04F63A
:1006E80042EB06015EEA430E08BF20EAD37070BDF4
:1006F800C4F10C04C4F1200500FA04F320FA05F053
:1007080001FA04F240EA020001F0004110EBD37054
:1007180041F100015EEA430E08BF20EAD37070BDC4
:10072800C4F1200500FA05F24EEA020E20FA04F39D
:1007380001FA05F243EA020321FA04F001F000414C
:1007480021FA04F220EA020000EBD3705EEA430EBD
:1007580008BF20EAD37070BD94F0000F0FD101F0EC
:100768000046400041EB010111F4801F08BF013C25
:10077800F7D041EA060195F0000F18BF704703F063
:100788000046520043EB030313F4801F08BF013DEA
:10079800F7D043EA0603704794EA0C0F0CEA1355A6
:1007A80018BF95EA0C0F0CD050EA410618BF52EA60
:1007B8004306D1D181EA030101F000414FF0000066
:1007C80070BD50EA410606BF1046194652EA430674
:1007D80019D094EA0C0F02D150EA013613D195EAE8
:1007E8000C0F05D152EA03361CBF104619460AD130
:1007F80081EA030101F0004141F0FE4141F470013A
:100808004FF0000070BD41F0FE4141F4780170BD29
:1008180070B54FF0FF0C4CF4E06C1CEA11541DBF8E
:100828001CEA135594EA0C0F95EA0C0F00F0A7F890
:10083800A4EB050481EA030E52EA03354FEA0131BD
:1008480000F088804FEA03334FF0805545EA1313D0
:1008580043EA12634FEA022245EA111545EA106598
:100868004FEA00260EF000419D4208BF964244F12F
:10087800FD0404F5407402D25B084FEA3202B61A4E
:1008880065EB03055B084FEA32024FF480104FF422
:10089800002CB6EB020E75EB030E22BFB61A754696
:1008A80040EA0C005B084FEA3202B6EB020E75EB29
:1008B800030E22BFB61A754640EA5C005B084FEA91
:1008C8003202B6EB020E75EB030E22BFB61A75465E
:1008D80040EA9C005B084FEA3202B6EB020E75EB69
:1008E800030E22BFB61A754640EADC0055EA060E2A
:1008F80018D04FEA051545EA16754FEA06164FEA6D
:10090800C30343EA52734FEAC2025FEA1C1CC0D118
:1009180011F4801F0BD141EA00014FF000004FF0A5
:10092800004CB6E711F4801F04BF01430020B4F166
:10093800FD0C88BFBCF5E06F3FF6AFAEB5EB030C1E
:1009480004BFB6EB020C5FEA500C50F1000041EB1B
:10095800045170BD0EF0004E4EEA113114EB5C04E8
:10096800C2BFD4EB0C0541EA045170BD41F48011BB
:100978004FF0000E013C90E645EA060E8DE60CEAC3
:10098800135594EA0C0F08BF95EA0C0F3FF43BAFE0
:1009980094EA0C0F0AD150EA01347FF434AF95EA97
:1009A8000C0F7FF425AF104619462CE795EA0C0F7B
:1009B80006D152EA03353FF4FDAE1046194622E748
:1009C80050EA410618BF52EA43067FF4C5AE50EA22
:1009D80041047FF40DAF52EA43057FF4EBAE12E712
:1009E8004FF0FF3C06E000BF4FF0010C02E000BFF3
:1009F8004FF0010C4DF804CD4FEA410C7FEA6C5CD6
:100A08004FEA430C18BF7FEA6C5C1BD001B050EA78
:100A1800410C0CBF52EA430C91EA030F02BF90EA63
:100A2800020F0020704710F1000F91EA030F58BF22
:100A3800994208BF90422CBFD8176FEAE37040F084
:100A4800010070474FEA410C7FEA6C5C02D150EA22
:100A5800013C07D14FEA430C7FEA6C5CD6D152EADD
:100A6800033CD3D05DF8040B704700BF84461046A2
:100A780062468C461946634600E000BF01B5FFF7A1
:100A8800B7FF002848BF10F1000F01BD4DF808ED71
:100A9800FFF7F4FF0CBF012000205DF808FB00BF42
:100AA8004DF808EDFFF7EAFF34BF012000205DF89C
:100AB80008FB00BF4DF808EDFFF7E0FF94BF0120E9
:100AC80000205DF808FB00BF4DF808EDFFF7CEFFEA
:100AD80094BF012000205DF808FB00BF4DF808ED29
:100AE800FFF7C4FF34BF012000205DF808FB00BFFA
:100AF8004FEA410C7FEA6C5C02D150EA013C0AD112
:100B08004FEA430C7FEA6C5C02D152EA033C02D103
:100B18004FF0000070474FF0010070474A0011D2B3
:100B280012F5001211D20DD56FF47873B3EB62523F
:100B38000ED44FEAC12343F0004343EA505323FA4B
:100B480002F070474FF00000704750EA013002D1C0
:100B58004FF0FF3070474FF00000704780F00040C2
:100B680002E000BF81F0004142001FBF5FEA41037D
:100B780092EA030F7FEA226C7FEA236C6AD04FEA7D
:100B88001262D2EB1363C1BFD218414048404140C2
:100B9800B8BF5B42192B88BF704710F0004F40F474
:100BA800000020F07F4018BF404211F0004F41F490
:100BB800000121F07F4118BF494292EA030F3FD05C
:100BC800A2F1010241FA03FC10EB0C00C3F120036F
:100BD80001FA03F100F0004302D5494260EB4000FE
:100BE800B0F5000F13D3B0F1807F06D340084FEA69
:100BF800310102F10102FE2A51D2B1F1004F40EB5E
:100C0800C25008BF20F0010040EA030070474900C5
:100C180040EB0000013A28BFB0F5000FEDD2B0FA62
:100C280080FCACF1080CB2EB0C0200FA0CF0AABF85
:100C380000EBC25052421843BCBFD0401843704723
:100C480092F0000F81F4000106BF80F40000013229
:100C5800013BB5E74FEA41037FEA226C18BF7FEA00
:100C6800236C21D092EA030F04D092F0000F08BF42
:100C78000846704790EA010F1CBF0020704712F029
:100C88007F4F04D1400028BF40F00040704712F168
:100C980000723CBF00F50000704700F0004343F0CD
:100CA800FE4040F4000070477FEA226216BF084603
:100CB8007FEA23630146420206BF5FEA412390EAC6
:100CC800010F40F4800070474FF0000304E000BFBC
:100CD80010F0004348BF40425FEA000C08BF70476D
:100CE80043F0964301464FF000001CE050EA010231
:100CF80008BF70474FF000030AE000BF50EA010246
:100D080008BF704711F0004302D5404261EB410132
:100D18005FEA010C02BF84460146002043F0B64357
:100D280008BFA3F18053A3F50003BCFA8CF2083A7C
:100D3800A3EBC25310DB01FA02FC634400FA02FC85
:100D4800C2F12002BCF1004F20FA02F243EB02008C
:100D580008BF20F00100704702F1200201FA02FCEE
:100D6800C2F1200250EA4C0021FA02F243EB0200E1
:100D780008BF20EADC7070474FF0FF0C1CEAD05225
:100D88001EBF1CEAD15392EA0C0F93EA0C0F6FD0E6
:100D98001A4480EA010C400218BF5FEA41211ED0C4
:100DA8004FF0006343EA501043EA5111A0FB0131B0
:100DB8000CF00040B1F5000F3EBF490041EAD37185
:100DC8005B0040EA010062F17F02FD2A1DD8B3F101
:100DD800004F40EBC25008BF20F00100704790F070
:100DE800000F0CF0004C08BF49024CEA502040EAC2
:100DF80051207F3AC2BFD2F1FF0340EAC250704788
:100E080040F400004FF00003013A5DDC12F1190FC5
:100E1800DCBF00F000407047C2F10002410021FA37
:100E280002F1C2F1200200FA02FC5FEA310040F14F
:100E3800000053EA4C0308BF20EADC70704792F0C8
:100E4800000F00F0004C02BF400010F4000F013A00
:100E5800F9D040EA0C0093F0000F01F0004C02BFFB
:100E6800490011F4000F013BF9D041EA0C018FE76A
:100E78000CEAD15392EA0C0F18BF93EA0C0F0AD070
:100E880030F0004C18BF31F0004CD8D180EA010096
:100E980000F00040704790F0000F17BF90F0004F2F
:100EA800084691F0000F91F0004F14D092EA0C0F11
:100EB80001D142020FD193EA0C0F03D14B0218BFA4
:100EC800084608D180EA010000F0004040F0FE40EA
:100ED80040F40000704740F0FE4040F44000704786
:100EE8004FF0FF0C1CEAD0521EBF1CEAD15392EA05
:100EF8000C0F93EA0C0F69D0A2EB030280EA010CF5
:100F080049024FEA402037D04FF0805343EA11118D
:100F180043EA10130CF000408B4238BF5B0042F1EB
:100F28007D024FF4000C8B4224BF5B1A40EA0C0090
:100F3800B3EB510F24BFA3EB510340EA5C00B3EBC2
:100F4800910F24BFA3EB910340EA9C00B3EBD10FB0
:100F580024BFA3EBD10340EADC001B0118BF5FEA02
:100F68001C1CE0D1FD2A3FF650AF8B4240EBC2502B
:100F780008BF20F0010070470CF0004C4CEA5020EC
:100F88007F32C2BFD2F1FF0340EAC250704740F43B
:100F980000004FF00003013A37E792F0000F00F02D
:100FA800004C02BF400010F4000F013AF9D040EAAB
:100FB8000C0093F0000F01F0004C02BF490011F43F
:100FC800000F013BF9D041EA0C0195E70CEAD15337
:100FD80092EA0C0F08D142027FF47DAF93EA0C0F1E
:100FE8007FF470AF084676E793EA0C0F04D14B0202
:100FF8003FF44CAF08466EE730F0004C18BF31F0B4
:10100800004CCAD130F000427FF45CAF31F00043AD
:101018007FF43CAF5FE700BF4FEA4002B2F1FE4FFA
:101028000FD34FF09E03B3EB12620DD94FEA0023A2
:1010380043F0004310F0004F23FA02F018BF40427B
:1010480070474FF00000704712F1610F01D1420262
:1010580005D110F0004008BF6FF0004070474FF016
:101068000000704742000ED2B2F1FE4F0BD34FF092
:101078009E03B3EB126209D44FEA002343F0004306
:1010880023FA02F070474FF00000704712F1610F29
:1010980001D1420202D14FF0FF3070474FF00000FB
:1010A800704700BF80B500AF06F0B6F900BF80BD3D
:1010B80080B584B000AF0346FB800023FB7306F0C5
:1010C800DBF9FB881B0A9BB2DBB25B00DBB2603B3F
:1010D800DBB2184606F0ACFA06F01EFAFB88DBB263
:1010E800184606F0A5FA06F017FA06F0C5F9A12089
:1010F80006F09EFA06F010FA002006F0D9FA034628
:10110800FB7306F0E1F9FB7B18461037BD4680BD3E
:1011180080B582B000AF03460A46FB8013467B7158
:1011280006F0AAF9FB881B0A9BB2DBB25B00DBB2B4
:10113800603BDBB2184606F07BFA06F0EDF9FB8857
:10114800DBB2184606F074FA06F0E6F97B79184621
:1011580006F06EFA06F0E0F906F0B6F90A2000F09B
:1011680021FA00BF0837BD4680BD90B583B000AFF7
:1011780003463960FB801346BB800DE0FB885A1C90
:10118800FA803C68621C3A601846FFF791FF0346F4
:101198002370BB88013BBB80BB88002BEED100BF0E
:1011A80000BF0C37BD4690BD80B582B000AF034686
:1011B8003960FB801346BB800CE03B681A78FB88DB
:1011C80011461846FFF7A4FFFB880133FB803B68F4
:1011D80001333B60BB885A1EBA80002BEDD100BF9B
:1011E80000BF0837BD4680BD80B500AF052000F0C0
:1011F8009BF900BF80BD000080B586B000AF124BE0
:101208009B69114A43F0100393610F4B9B6903F0EC
:1012180010037B607B680923BB600123FB6001230B
:101228003B6103237B6107F108031946074808F06F
:10123800C7FA074B01221A60064B01221A6000BF49
:101248001837BD4680BD00BF0010024000100140A5
:10125800800122428C01224280B500AF0F4B1B68EF
:101268000E4A23F4704313600C4B1B680B4A43F47B
:10127800405313600A4B01221A600A4B01221A607C
:101288001E2000F051F9064B00221A60FFF7ACFF50
:10129800044B00221A6000BF80BD00BF001001404F
:1012A8008C0122428001224280B500AF0D4B1B68A1
:1012B8000C4A23F4704313600A4B1B68094A43F431
:1012C80040531360084B01221A601E2000F02CF9CD
:1012D800064B00221A60FFF787FF044B01221A60B1
:1012E80000BF80BD00100140800122428C012242D3
:1012F80080B582B000AF0023FB71164B1B68154AFE
:1013080023F470431360134B1B68124A43F40043E1
:101318001360114B01221A60104B01221A60FFF76B
:1013280063FF0BE0FB790133FB71FB79FA2B03D9DF
:10133800FFF7BAFF012309E0FFF756FF084B1B68C8
:10134800002BEFD1054B00221A60002318460837FE
:10135800BD4680BD001001408C012242800122421E
:101368000C01224280B500AF0F4B00221A600F4BD0
:101378001B680E4A23F4704313600C4B1B680B4A1E
:1013880043F440531360FFF72FFF094B00221A6004
:10139800FFF72AFF044B01221A60FFF725FF024BD3
:1013A80000221A6000BF80BD800122420010014067
:1013B8008C01224280B500AF0F4B00221A600F4B00
:1013C8001B680E4A23F4704313600C4B1B680B4ACE
:1013D80043F440531360FFF707FF094B01221A60DB
:1013E800FFF702FF044B01221A60FFF7FDFE024BD4
:1013F80000221A6000BF80BD800122420010014017
:101408008C01224280B584B000AF0346FB71184BB3
:101418001B68174A23F470431360154B1B68144A62
:1014280043F440531360134B00221A60FFF7DCFEAD
:101438000023FB7314E0FB79DB09DAB20E4B1A6068
:10144800FB795B00FB710B4B01221A60FFF7CCFEA6
:10145800084B00221A60FFF7C7FEFB7B0133FB73C2
:10146800FB7B072BE7D900BF00BF1037BD4680BD07
:1014780000100140800122428C01224280B584B0D4
:1014880000AF0346FB710023BB731B4B1B681A4A52
:1014980023F470431360184B1B68174A43F4004346
:1014A80013601E2000F040F80023FB7314E0134B78
:1014B80000221A60FFF798FE104B01221A60BB7BCE
:1014C8005B00BB730E4B1B68002B02D0BB7B013348
:1014D800BB73FB7B0133FB73FB7B072BE7D9FB79E2
:1014E800002B02D1FFF766FF01E0FFF73BFFBB7B54
:1014F80018461037BD4680BD0010014080012242C9
:101508000C01224280B582B000AF0346FB71042073
:1015180007F0F6FFFB79034A136000BF0837BD46A2
:1015280080BD00BFDC00002080B489B000AF7860C7
:101538000023BB61194B5B687B61194B1A687B6898
:1015480002FB03F33B61154B9B68FB61134B9B68E4
:10155800FB60FA68FB699A42F8D0FA68FB699A421C
:1015680006D2FA69FB68D31ABA691344BB6107E06B
:101578007A69FB68D21AFB691344BA691344BB61E0
:10158800FB68FB61BA693B699A4200D2DEE700BF9B
:1015980000BF2437BD4680BC704700BF10E000E0A4
:1015A800DC00002080B584B000AF0346FB80002338
:1015B800FB6006E04FF47A70FFF7B6FFFB68013373
:1015C800FB60FB88FA689A42F4D300BF00BF10376B
:1015D800BD4680BD80B584B000AF03463960FB804E
:1015E80013467B710023BB73FFF736FE7020FFF7AD
:1015F80009FFFFF77DFEFB88DBB21846FFF702FF05
:10160800FFF776FE0023FB7310E0FB7B3A68134478
:101618001B781846FFF7F6FEFFF76AFE0346BB7312
:10162800BB7B002B07D1FB7B0133FB73FA7B7B79F8
:101638009A42EAD300E000BFFFF736FEBB7B1846AC
:101648001037BD4680BD90B585B000AF0346396000
:10165800FB8013467B71FFF7FFFD7020FFF7D2FE7A
:10166800FFF746FEFB88DBB21846FFF7CBFEFFF715
:101678003FFEFFF7F1FD7120FFF7C4FEFFF738FECC
:101688000023FB7313E0FA7B7B79013B9A4214BF7A
:1016980001230023DBB21946FB7B3A68D4180846BD
:1016A800FFF7ECFE03462370FB7B0133FB73FA7BE9
:1016B8007B799A42E7D3FFF7F7FD00BF1437BD46A1
:1016C80090BD000080B586B000AF374B9B69364AA5
:1016D80043F010039361344B9B6903F010033B60A4
:1016E8003B684FF400537B600123BB600123FB6020
:1016F80003233B613B1D19462C4808F061F802237F
:101708007B600023BB603B1D1946284808F058F849
:10171800FFF772FD264B00221A601420FFF742FFE4
:10172800234B01221A603220FFF73CFF00233B7550
:1017380007F11403012219460020FFF74BFF07F1B8
:10174800140301221946A420FFF744FF16233B7512
:1017580007F11403012219468020FFF73BFF0C23F1
:101768003B7507F11403012219468820FFF732FF61
:1017780007F1140302221946A120FFF764FF3B7DFD
:10178800302B0CD17B7D032B09D13B7D1B027A7D4D
:101798001344194607480AF021FC002300E00123FE
:1017A80018461837BD4680BD0010024000100140A1
:1017B800B401224260D2000880B584B000AF03466D
:1017C800FB710023FB730023BB73834B1B7801332E
:1017D800DAB2814B1A70804B1A78804BA3FB021344
:1017E800D9080B469B000B445B00D31ADBB2002BD5
:1017F80004D0794B1B78092B00F2BB80FB1D01221A
:1018080019460220FFF71FFFFB7903F00F03002B97
:1018180000F0AF80FB7903F00F03052B00F3A980DC
:10182800FB7903F00F03FF2202FA03F37B7397F9A6
:101838000D30DB435BB263F03F035BB2DAB2684B57
:1018480083F820200023FB7380E0654B93F8203059
:101858001A46FB7B42FA03F303F00103002B72D014
:10186800FB7B604A32F8133007F10801042218465E
:10187800FFF7E9FE5A4B93F8303003F00103002BD1
:1018880022D03B7A1B029BB203F4706399B27B7A35
:101898009AB2FB7B0A4491B2514A08335B00134465
:1018A8000A46DA80BB7A1B029BB203F4706399B2D2
:1018B800FB7A9AB2FB7B0A4491B2494A04335B0033
:1018C80013440A469A8024E03B7A1B029BB203F435
:1018D80070639AB27B7A9BB213449AB2FB7BC2F5CF
:1018E800F07291B23E4A04335B0013440A469A8070
:1018F800BB7A1B029BB203F4706399B2FB7A9AB26B
:10190800FB7B0A4491B2364A08335B0013440A460B
:10191800DA803B7A03F0F003802B14D0FA7B30494D
:1019280002F108035B000B440021D980F97B2C48A5
:1019380002F108035B000344D888294A0B1D5B00A9
:10194800134402469A80FB7B0133FB73FB7B042B19
:101958007FF67BAF0123BB73214B9B89002B05D1FD
:101968001F4BDB8A002B01D10023FB711A4B00228D
:101978001A70FB7903F01F03002B20D1184B93F842
:1019880020305BB2002B09DA154B93F8203003F0B6
:101998007F03DAB2124B83F8202010E0104B4FF689
:1019A800FF729A810E4B4FF6FF72DA820C4B93F856
:1019B800203023F01F03DAB2094B83F82020064BAE
:1019C8001B78F02B02D9044B0A221A70BB7B1846ED
:1019D8001037BD4680BD00BFE0000020CDCCCCCC88
:1019E8001000002060D7000880B584B000AF03461F
:1019F800FB710023FB7300233B73FB797B7300238C
:101A0800FB7309E03A7BFB7B1049CB5C1344DBB2E8
:101A18003B73FB7B0133FB73FB7BB72BF2D93B7B1F
:101A28005B42DBB23B73B822084948F2470000F03A
:101A38000FF807F10C030222194648F2FF0000F0E4
:101A480007F8002318461037BD4680BD6CD700083C
:101A580080B584B000AF03463960FB8013467B71C4
:101A68000023BB73FFF7F8FB2820FFF7CBFCFFF739
:101A78003FFCFB881B0A9BB2DBB21846FFF7C2FC8F
:101A8800FFF736FCFB88DBB21846FFF7BBFCFFF715
:101A98002FFC0023FB7310E0FB7B3A6813441B7890
:101AA8001846FFF7AFFCFFF723FC0346BB73BB7B6D
:101AB800002B07D1FB7B0133FB73FA7B7B799A42BE
:101AC800EAD300E000BFFFF7EFFBBB7B18461037F7
:101AD800BD4680BD90B585B000AF03463960FB8038
:101AE80013467B71FFF7B8FB2820FFF78BFCFFF745
:101AF800FFFBFB881B0A9BB2DBB21846FFF782FC90
:101B0800FFF7F6FBFB88DBB21846FFF77BFCFFF715
:101B1800EFFBFFF7A1FB2920FFF774FCFFF7E8FBB9
:101B28000023FB7313E0FA7B7B79013B9A4214BFD5
:101B380001230023DBB21946FB7B3A68D418084618
:101B4800FFF79CFC03462370FB7B0133FB73FA7B96
:101B58007B799A42E7D3FFF7A7FB00BF1437BD464E
:101B680090BD000080B588B000AF464B9B69454AE0
:101B780043F010039361434B9B6903F010037B60B0
:101B88007B684FF40053BB600123FB6001233B617A
:101B980003237B6107F1080319463B4807F010FE51
:101BA8000223BB600023FB6007F10803194636488F
:101BB80007F006FEFFF720FB344B00221A600A20CC
:101BC800FFF7F0FC314B01221A600A20FFF7EAFC0C
:101BD8000223BB6002233B610023FB6007F108037B
:101BE8001946294807F0ECFD6420FFF7DBFC07F1F4
:101BF80018030422194648F24010FFF76BFF002330
:101C08003B7707F11803194621480AF0E7F907F16D
:101C1800180320491846FEF70BFB0346002B2BD16F
:101C280002233B7607F118030122194648F24000C7
:101C3800FFF70EFF07F118030122194648F2470083
:101C4800FFF748FF3B7E5F2B07D83B7E19461248BB
:101C58000AF0C4F90120FFF7C7FE0A20FFF7A2FC2B
:101C680000233B7607F118030122194648F2400089
:101C7800FFF7EEFE002300E0002318462037BD469C
:101C880080BD00BF0010024000100140B401224294
:101C98006CD2000878D2000880D2000880B586B0DF
:101CA80000AF0346FB710023FB750023BB75934B04
:101CB8001B780133DAB2914B1A70904B1A78904B1B
:101CC800A3FB0213D9080B469B000B445B00D31AF5
:101CD800DBB2002B04D0894B1B78092B00F2DB8088
:101CE800FB1D0122194648F24E10FFF7F3FEFB795F
:101CF8005BB2002B0EDAFB7903F00F03052B09DC2E
:101D08000023FB7307F10F030122194648F24E1016
:101D1800FFF79EFEFB7903F00F03002B00F0BB805A
:101D2800FB7903F00F03052B00F3B580FB7903F073
:101D38000F03FF2202FA03F3DBB2FB73714B93F834
:101D480020307B75FB7B5BB2DB435BB263F03F0308
:101D58005BB2DAB26B4B83F820206A4B9A89694BE5
:101D68009A82684BDA8A674BDA830023FB755EE058
:101D7800644B93F820301A46FB7D42FA03F303F0D4
:101D88000103002B50D0FB7D5F4A32F8133007F176
:101D9800100104221846FFF79DFE5A4B93F8303085
:101DA80003F00103002B21D07B7C9BB21B0299B26C
:101DB8003B7C9AB2FB7D0A4491B2524A08335B00DD
:101DC80013440A46DA80FB7C9BB21B029AB2BB7CA6
:101DD8009BB213449AB2FB7DC2F5487291B2494A4C
:101DE80004335B0013440A469A801DE07B7C9BB257
:101DF8001B0299B23B7C9AB2FB7D0A4491B2414ADC
:101E080004335B0013440A469A80FB7C9BB21B0296
:101E180099B2BB7C9AB2FB7D0A4491B2394A083325
:101E28005B0013440A46DA80FB7D0133FB75FB7DBA
:101E3800042B9DD90123BB75324B9A89334B1B88E0
:101E48009A4205D82F4BDA8A304B5B889A421FD9C1
:101E5800FB7903F00E03002B0BD02A4BDA89294BB0
:101E68009A81284B1A8B274BDA82244B00221A704E
:101E780011E0244B9A8A234B9A81224BDA8B214B0F
:101E8800DA828023FB711F4A7B7D82F8203002E0D2
:101E98001A4B00221A70FB7903F08F03802B20D194
:101EA800184B93F820305BB2002B09DA154B93F8E6
:101EB800203003F07F03DAB2124B83F8202010E0C1
:101EC800104B4FF6FF729A810E4B4FF6FF72DA8273
:101ED8000C4B93F8203023F01F03DAB2094B83F838
:101EE8002020064B1B78F02B02D9044B0A221A70CB
:101EF800BB7D18461837BD4680BD00BFE1000020F5
:101F0800CDCCCCCC1000002024D80008E400002060
:101F180080B586B000AF1F4B9B691E4A43F004038F
:101F280093611C4B9B6903F004037B607B68194B2E
:101F38009B69184A43F010039361164B9B6903F0A1
:101F480010033B603B680123BB600023FB60022356
:101F58003B6103237B6107F1080319460E4807F02C
:101F68002FFC4FF40043BB6001233B6107F10803DA
:101F78001946094807F024FC2023BB6001233B6174
:101F880007F108031946054807F01AFC00BF18377F
:101F9800BD4680BD0010024000080140001001400D
:101FA80080B483B000AF0346FB800D4B4FF48072C2
:101FB8005A610B4B4FF400725A610A4AFB88D3608E
:101FC800074B80225A61064B80221A61044B4FF45A
:101FD80000721A6100BF0C37BD4680BC704700BF55
:101FE80000100140000C014080B483B000AF0346EC
:101FF800FB800D4B4FF480721A610B4B4FF400724B
:102008005A610A4AFB88D360074B80225A61064B03
:1020180080221A61044B4FF400721A6100BF0C371A
:10202800BD4680BC704700BF00100140000C014055
:1020380080B483B000AF0346FB7100BFFB795A1E22
:10204800FA71002BFAD100BF00BF0C37BD4680BC27
:102058007047000080B582B000AF1A4B4FF088324D
:102068001A60184B4FF088325A60164B0022DA601B
:10207800154B4FF480721A61134B4FF400725A617A
:10208800114B40225A610220FFF7D2FF0D4B9B688B
:10209800FB800D4B40221A610B4B4FF400721A6102
:1020A800084B4FF033321A60064B4FF033325A6008
:1020B800044B4FF6FF72DA60FB8818460837BD46B6
:1020C80080BD00BF000C01400010014080B582B007
:1020D80000AF03460A46FB801346BB80FB881846C0
:1020E800FFF75EFF0C4B4FF480721A610A4B4FF4F6
:1020F80000725A61094ABB88D360074B80225A6133
:10210800054B80221A61044B4FF400721A6100BF1C
:102118000837BD4680BD00BF00100140000C0140DB
:1021280080B500AF034B1B891846FFF739FF00BF86
:1021380080BD00BFE400002080B584B000AF034636
:102148000A46FB801346BB80284B1B88FA889A42B4
:1021580004D2264B5B88BA889A4201D3002340E018
:10216800BA88FB881146184600F042F81F4B9B8836
:1021780045F21052934204D14FF43850FFF710FF44
:1021880002E02E20FFF70CFFFFF764FF0346FB81F8
:10219800164B9B8841F66312934201D1FB8920E0DC
:1021A800FFF758FF0346FB81FFF754FF0346BB8147
:1021B800FB89DBB27B817B891B027B81FB89DB0A84
:1021C8009BB2DB021AB27B899B0A9BB25B011BB2F2
:1021D80013431AB2BB89DB0A9BB21BB213431BB26F
:1021E8009BB218461037BD4680BD00BFE4000020F2
:1021F80080B582B000AF03460A46FB801346BB8019
:10220800994B9B8841F66312934240F03381964B79
:102218009B79002B63D1944B1A88FB88D31A9BB205
:10222800013BFB80904B5B891846FFF7B9FE8F4B4B
:102238004FF480721A618D4B4FF400725A618C4BC7
:102248000022DA60894B80225A61884B80221A6109
:10225800864B4FF400721A61844B4FF480721A61F6
:10226800824B4FF400725A61814B0022DA607F4B37
:1022780080225A617D4B80221A617C4B4FF4007298
:102288001A617A4B4FF480721A61784B4FF40072DE
:102298005A61FB881B0A9AB2754BDA60734B80222D
:1022A8005A61724B80221A61704B4FF400721A61A6
:1022B8006E4B4FF480721A616C4B4FF400725A6186
:1022C800FB886B4ADBB2D360684B80225A61674B4C
:1022D80080221A61654B4FF400721A6161E0624B0B
:1022E8005B891846FFF75CFE604B4FF480721A61F9
:1022F8005E4B4FF400725A61FB881B0A9AB25C4B22
:10230800DA605A4B80225A61584B80221A61574B27
:102318004FF400721A61554B4FF480721A61534B97
:102328004FF400725A61FB88514ADBB2D3604F4BBD
:1023380080225A614D4B80221A614C4B4FF4007237
:102348001A614A4B4FF480721A61484B4FF400727D
:102358005A61454B1B88013B1A12454BDA60434BC7
:1023680080225A61414B80221A61404B4FF400721F
:102378001A613E4B4FF480721A613C4B4FF4007265
:102388005A61394B1B88013B394ADBB2D360374B62
:1023980080225A61354B80221A61344B4FF4007207
:1023A8001A61314B9B891846FFF7FAFD2F4B4FF402
:1023B80080721A612D4B4FF400725A61BB881B0A58
:1023C8009AB22B4BDA60294B80225A61274B802224
:1023D8001A61264B4FF400721A61244B4FF4807235
:1023E8001A61224B4FF400725A61BB88204ADBB253
:1023F800D3601E4B80225A611C4B80221A611B4BF2
:102408004FF400721A61194B4FF480721A61174B1E
:102418004FF400725A61144B5B88013B1A12144B3B
:10242800DA60124B80225A61104B80221A610F4BDE
:102438004FF400721A610D4B4FF480721A610B4B06
:102448004FF400725A61084B5B88013B084ADBB2C3
:10245800D360064B80225A61044B80221A61034BD9
:102468004FF400721A61E2E0E4000020001001401D
:10247800000C0140704B9B8845F21052934272D178
:102488006D4B5B891846FFF78BFD6C4B4FF48072E0
:102498001A616A4B4FF400725A61FB881B0A9AB2A0
:1024A800674BDA60654B80225A61644B80221A615F
:1024B800624B4FF400721A615F4B5B8901339BB228
:1024C8001846FFF76DFD5D4B4FF480721A615B4B48
:1024D8004FF400725A61FB88594ADBB2D360574BFC
:1024E80080225A61554B80221A61544B4FF4007276
:1024F8001A61514B9B891846FFF752FD4F4B4FF419
:1025080080721A614D4B4FF400725A61BB881B0AE6
:102518009AB24B4BDA60494B80225A61474B802272
:102528001A61464B4FF400721A61434B9B89013381
:102538009BB21846FFF734FD404B4FF480721A6186
:102548003E4B4FF400725A61BB883D4ADBB2D36000
:102558003A4B80225A61394B80221A61374B4FF42B
:1025680000721A6163E0344B5B891846FFF718FD67
:10257800324B4FF480721A61304B4FF400725A613B
:10258800FB881B0A9AB22E4BDA602C4B80225A61C8
:102598002A4B80221A61294B4FF400721A61274B8B
:1025A8004FF480721A61254B4FF400725A61FB8810
:1025B800234ADBB2D360214B80225A611F4B802211
:1025C8001A611E4B4FF400721A611B4B9B89184607
:1025D800FFF7E6FC194B4FF480721A61174B4FF462
:1025E80000725A61BB881B0A9AB2154BDA60134B0A
:1025F80080225A61114B80221A61104B4FF40072ED
:102608001A610E4B4FF480721A610C4B4FF4007232
:102618005A61BB880A4ADBB2D360084B80225A61F0
:10262800064B80221A61054B4FF400721A6100BFF5
:102638000837BD4680BD00BFE400002000100140FF
:10264800000C014080B584B000AF0346FB71002345
:10265800FB810023BB815D4B9B79012B05D15B4B33
:102668009B8841F66312934209D1584B9B79002B02
:1026780034D1564B9B8841F6631293422ED1FB7995
:10268800072B2BD801A252F823F000BFB52600086B
:10269800BB260008C1260008C7260008CD2600086A
:1026A800D3260008D9260008DF2600080623FB7178
:1026B80014E00723FB7111E00423FB710EE00523EE
:1026C800FB710BE00123FB7108E00023FB7105E0BF
:1026D8000323FB7102E00223FB7100BFFB79072B88
:1026E80035D801A252F823F057270008112700080F
:1026F8001B270008252700082F270008392700086E
:10270800432700084D270008FB8943F08003FB811D
:102718001DE0FB8943F04003FB8118E0FB8943F08F
:10272800C003FB8113E0FB8943F02003FB810EE02B
:10273800FB8943F06003FB8109E0FB8943F0A003B8
:10274800FB8104E0FB8943F0E003FB8100BF1F4BE2
:102758009B8845F21052934203D14FF45853BB81E2
:1027680001E03623BB81194B9B8849F241329342E1
:1027780005D0164B9B8847F28972934203D1FB8997
:1027880043F00803FB81FA89BB8911461846FFF715
:102798009DFC0E4B9B8841F66312934228D0FB891F
:1027A80003F02003002B13D0084B1A88074B5B88D3
:1027B8009A421DD2054B1B887B81044B5A88034BD8
:1027C8001A80024A7B89538012E000BFE40000208F
:1027D8007F4B1A887E4B5B889A4209D97C4B1B88B1
:1027E8007B817B4B5A887A4B1A80794A7B89538044
:1027F800774B9B8845F21052934240F0EF80744B20
:102808005B891846FFF7CCFB724B4FF480721A6154
:10281800704B4FF400725A616F4B0022DA606D4BB7
:1028280080225A616B4B80221A616A4B4FF4007206
:102838001A61674B5B8901339BB21846FFF7B0FBFF
:10284800644B4FF480721A61624B4FF400725A6104
:10285800614B0022DA605F4B80225A615D4B802217
:102868001A615C4B4FF400721A61594B5B89023351
:102878009BB21846FFF794FB564B4FF480721A61CF
:10288800544B4FF400725A61514B1B88013B1A128A
:10289800514BDA604F4B80225A614E4B80221A61AD
:1028A8004C4B4FF400721A61494B5B8903339BB25E
:1028B8001846FFF775FB474B4FF480721A61454B7A
:1028C8004FF400725A61424B1B88013B424ADBB20B
:1028D800D360404B80225A613E4B80221A613D4BA7
:1028E8004FF400721A613A4B9B891846FFF758FB60
:1028F800384B4FF480721A61364B4FF400725A61AC
:10290800354B0022DA60334B80225A61314B8022EA
:102918001A61304B4FF400721A612D4B9B890133B9
:102928009BB21846FFF73CFB2A4B4FF480721A61A2
:10293800284B4FF400725A61274B0022DA60254B6E
:1029480080225A61234B80221A61224B4FF4007275
:102958001A611F4B9B8902339BB21846FFF720FB75
:102968001C4B4FF480721A611A4B4FF400725A6173
:10297800174B5B88013B1A12174BDA60154B802204
:102988005A61144B80221A61124B4FF400721A617B
:102998000F4B9B8903339BB21846FFF701FB0D4B86
:1029A8004FF480721A610B4B4FF400725A61084B56
:1029B8005B88013B084ADBB2D360064B80225A6130
:1029C800044B80221A61034B4FF400721A61C3E072
:1029D800E400002000100140000C0140604B5B89BE
:1029E8001846FFF7DDFA5F4B4FF480721A615D4BB2
:1029F8004FF400725A615C4B0022DA60594B802216
:102A08005A61584B80221A61564B4FF400721A6172
:102A1800544B4FF480721A61524B4FF400725A6152
:102A2800514B0022DA604F4B80225A614D4B802275
:102A38001A614C4B4FF400721A614A4B4FF4807282
:102A48001A61484B4FF400725A61454B1B88013B91
:102A58001A12454BDA60434B80225A61414B80225F
:102A68001A61404B4FF400721A613E4B4FF480726A
:102A78001A613C4B4FF400725A61394B1B88013B79
:102A8800394ADBB2D360374B80225A61354B8022FA
:102A98001A61344B4FF400721A61314B9B89184606
:102AA800FFF77EFA2F4B4FF480721A612D4B4FF4CB
:102AB80000725A612C4B0022DA602A4B80225A613C
:102AC800284B80221A61274B4FF400721A61254B5C
:102AD8004FF480721A61234B4FF400725A61224BF3
:102AE8000022DA601F4B80225A611E4B80221A6135
:102AF8001C4B4FF400721A611A4B4FF480721A6122
:102B0800184B4FF400725A61154B5B88013B1A123F
:102B1800154BDA60134B80225A61124B80221A61DE
:102B2800104B4FF400721A610E4B4FF480721A6109
:102B38000C4B4FF400725A61094B5B88013B0A4AFF
:102B4800DBB2D360074B80225A61064B80221A61A0
:102B5800044B4FF400721A6100BF1037BD4680BDA8
:102B6800E400002000100140000C014080B582B054
:102B780000AF03460A46FB801346BB80BA88FB8831
:102B880011461846FFF734FBFFF7CAFA0C4B4FF40F
:102B980080721A610A4B4FF400725A61094B1A8805
:102BA800094BDA60064B80225A61054B80221A6174
:102BB800034B4FF400721A6100BF0837BD4680BD51
:102BC80000100140E2000020000C014080B582B0F6
:102BD80000AF0346FB800B46BB8013467B803C4B13
:102BE8009B8845F21052934278D1394B5B8918463D
:102BF800FFF7D6F9374B4FF480721A61354B4FF413
:102C080000725A61FB881B0A9AB2334BDA60314B67
:102C180080225A612F4B80221A612E4B4FF400728A
:102C28001A612B4B5B8901339BB21846FFF7B8F941
:102C3800284B4FF480721A61264B4FF400725A6188
:102C4800FB88254ADBB2D360224B80225A61214B94
:102C580080221A611F4B4FF400721A611C4B9B892A
:102C68001846FFF79DF91B4B4FF480721A61194BF8
:102C78004FF400725A61BB881B0A9AB2164BDA608D
:102C8800144B80225A61134B80221A61114B4FF466
:102C980000721A610E4B9B8901339BB21846FFF7ED
:102CA8007FF90C4B4FF480721A610A4B4FF4007293
:102CB8005A61BB88084ADBB2D360064B80225A614E
:102CC800044B80221A61034B4FF400721A6141E1F0
:102CD800E400002000100140000C0140684B9B8874
:102CE80041F66312934240F0D180654B9B79002BEB
:102CF80006D1634B1A88FB88D31A9BB2013BFB8031
:102D08005F4B5B891846FFF74BF95E4B4FF48072B7
:102D18001A615C4B4FF400725A61FB881B0A9AB225
:102D2800594BDA60574B80225A61564B80221A6100
:102D3800544B4FF400721A61524B4FF480721A616F
:102D4800504B4FF400725A61FB884F4ADBB2D36094
:102D58004C4B80225A614B4B80221A61494B4FF4ED
:102D680000721A61474B4FF480721A61454B4FF459
:102D780000725A61FB881B0A9AB2434BDA60414BD6
:102D880080225A613F4B80221A613E4B4FF40072F9
:102D98001A613C4B4FF480721A613A4B4FF400723F
:102DA8005A61FB88384ADBB2D360364B80225A61BD
:102DB800344B80221A61334B4FF400721A61304B46
:102DC8009B891846FFF7ECF82E4B4FF480721A6176
:102DD8002C4B4FF400725A61BB881B0A9AB22A4BDB
:102DE800DA60284B80225A61264B80221A61254BD3
:102DF8004FF400721A61234B4FF480721A61214B11
:102E08004FF400725A61BB881F4ADBB2D3601D4B76
:102E180080225A611B4B80221A611A4B4FF40072B0
:102E28001A61184B4FF480721A61164B4FF40072F6
:102E38005A61BB881B0A9AB2134BDA60114B802285
:102E48005A61104B80221A610E4B4FF400721A61BE
:102E58000C4B4FF480721A610A4B4FF400725A619E
:102E6800BB88094ADBB2D360064B80225A61054B06
:102E780080221A61034B4FF400721A616AE000BFA6
:102E8800E400002000100140000C0140494B5B8920
:102E98001846FFF785F8484B4FF480721A61464B85
:102EA8004FF400725A61FB881B0A9AB2434BDA60EE
:102EB800414B80225A61404B80221A613E4B4FF4AD
:102EC80000721A613C4B4FF480721A613A4B4FF40E
:102ED80000725A61FB88394ADBB2D360364B8022D4
:102EE8005A61354B80221A61334B4FF400721A61D4
:102EF800304B9B891846FFF753F82F4B4FF48072DD
:102F08001A612D4B4FF400725A61BB881B0A9AB2A2
:102F18002A4BDA60284B80225A61274B80221A619B
:102F2800254B4FF400721A61234B4FF480721A61DB
:102F3800214B4FF400725A61BB88204ADBB2D36040
:102F48001D4B80225A611C4B80221A611A4B4FF488
:102F580000721A61184B4FF480725A61164B4FF485
:102F680000725A61134B1A89144BDA60124B802293
:102F78005A61114B80221A610F4B4FF400721A618B
:102F88000D4B4FF480721A610B4B4FF400725A616B
:102F98000A4A7B88D360084B80225A61064B8022FC
:102FA8001A61054B4FF400721A6100BF0837BD461D
:102FB80080BD00BFE400002000100140000C01406B
:102FC80090B583B000AF0346FB71BE20FEF7E8FF63
:102FD8004B4B4FF480721A61494B4FF400725A619F
:102FE800484B0522DA60464B80225A61444B8022C6
:102FF8001A61434B4FF400721A61414B4FF48072CF
:103008001A613F4B4FF400725A61FB791846FDF77D
:103018006BFA39A3D3E90023FDF7D0FA02460B4631
:10302800384C10461946FDF779FD0346E360344BEA
:1030380080225A61324B80221A61314B4FF4007260
:103048001A612F4B4FF480721A612D4B4FF40072A6
:103058005A612C4B0122DA60294B80225A61284B95
:1030680080221A61264B4FF400721A61244B4FF4E8
:1030780080721A61224B4FF400725A61214BFF2271
:10308800DA601F4B80225A611D4B80221A611C4B4B
:103098004FF400721A611A4B4FF480721A61184B80
:1030A8004FF400725A61174B0022DA60144B8022E9
:1030B8005A61134B80221A61114B4FF400721A6146
:1030C8000F4B4FF480721A610D4B4FF400725A6126
:1030D8000C4B0022DA600A4B80225A61084B80228E
:1030E8001A61074B4FF400721A6100BF0C37BD46D6
:1030F80090BD00BFAFF300806666666666660440F2
:1031080000100140000C014080B582B000AF0346BA
:10311800FB71584AFB799371FB79002B51D1554BC0
:10312800F0221A80534B4FF4A0725A80514B9B885F
:1031380045F21052934214D14E4B4FF430521A813B
:103148004C4B4FF428525A814A4B4FF42C529A81D7
:10315800484B4FF4F0721A80464B4FF448725A802D
:1031680020E0444B9B8841F66312934211D1414BB6
:103178002C221A813F4B2B225A813E4B2A229A81BC
:103188003C4B4FF4F0721A803A4B4FF448725A8015
:1031980008E0384B2C221A81364B2A225A81354BAB
:1031A8002B229A81334B9B8845F21032934259D196
:1031B800304B4FF4A0721A802E4B4FF4F0725A80A5
:1031C80050E02C4B4FF4A0721A802A4BF0225A8000
:1031D800284B9B8845F21052934214D1254B4FF44B
:1031E80030521A81234B4FF428525A81214B4FF405
:1031F8002C529A811F4B4FF448721A801D4B4FF482
:10320800F0725A8020E01B4B9B8841F66312934270
:1032180011D1184B2C221A81164B2A225A81154B90
:103228002B229A81134B4FF448721A80114B4FF49A
:10323800F0725A8008E00F4B2C221A810D4B2A227B
:103248005A810C4B2B229A810A4B9B8845F21032EB
:10325800934207D1074B4FF4F0721A80054B4FF495
:10326800A0725A800020FFF7EDF900BF0837BD466D
:1032780080BD00BFE400002080B588B000AFA14B3E
:103288009B69A04A43F0080393619E4B9B6903F036
:103298000803BB60BB689B4B9B699A4A43F01003C9
:1032A8009361984B9B6903F010037B607B684FF434
:1032B800F863FB6001233B6101237B610323BB614E
:1032C80007F10C031946904806F07AFA4FF6FF7397
:1032D800FB6007F10C0319468C4806F071FA8C4B19
:1032E8005B68FB61FB6923F0E063FB61FB6943F00A
:1032F8008063FB61864AFB6953603220FEF752F90E
:1033080001210020FEF7E2FE3220FEF74BF9D32020
:10331800FEF746FEFEF79EFE03461A467D4B9A8050
:10332800FEF798FE03461A467A4B9A80FEF792FEFD
:1033380003461A46774B9A80764B9B881B029AB2B3
:10334800744B9A80FEF786FE03461A46714B9B889B
:1033580013439AB26F4B9A806E4B9B8849F2413265
:10336800934200F0C1800420FEF71AFEFEF772FEB9
:1033780003461A46674B9A80FEF76CFE03461A46C8
:10338800644B9A80FEF766FE03461A46614B9A80A4
:10339800604B9B881B029AB25E4B9A80FEF75AFEDE
:1033A80003461A465B4B9B8813439AB2594B9A8043
:1033B800584B9B8848F25252934203D1554B47F2DF
:1033C80089729A80534B9B8847F28972934200F026
:1033D8008B80D420FEF7E4FDFEF73CFE03461A4638
:1033E8004C4B9A80FEF736FE03461A46494B9A80A4
:1033F800FEF730FE03461A46464B9A80454B9B889B
:103408001B029AB2434B9A80FEF724FE03461A46E3
:10341800404B9B8813439AB23E4B9A803D4B9B8806
:1034280045F2103293425FD04FF45A40FEF7B8FD90
:10343800FEF710FE03461A46364B9A804FF45B405F
:10344800FEF7AEFDFEF706FE03461A46314B9A809C
:10345800304B9B881B029AB22E4B9A804FF45C40EB
:10346800FEF79EFDFEF7F6FD03461A46294B9B889C
:1034780013439AB2274B9A80264B9B88B3F5004F8B
:1034880003D1244B45F210529A80224B9B8845F277
:103498001052934228D0A120FEF782FDFEF7DAFDF4
:1034A80003461A461B4B9A80FEF7D4FD03461A467C
:1034B800184B9A80174B9B881B029AB2154B9A801F
:1034C800FEF7C8FD03461A46124B9B8813439AB26F
:1034D800104B9A800F4B9B8845F26172934203D13F
:1034E8000C4B41F663129A800A4B9B8819460A488E
:1034F80008F074FD074B9B8849F24132934240F033
:1035080023810BE00010024000100140000C014034
:1035180000000140E400002094D20008CF20FEF70C
:103528003FFD0020FEF760FDC120FEF75DFD302065
:10353800FEF75AFDED20FEF733FD6420FEF754FD3B
:103548000320FEF751FD1220FEF74EFD8120FEF705
:103558004BFDE820FEF724FD8520FEF745FD1020F1
:10356800FEF742FD7A20FEF73FFDCB20FEF718FD5F
:103578003920FEF739FD2C20FEF736FD0020FEF736
:1035880033FD3420FEF730FD0220FEF72DFDF72035
:10359800FEF706FD2020FEF727FDEA20FEF700FDD6
:1035A8000020FEF721FD0020FEF71EFDC020FEF7DB
:1035B800F7FC1B20FEF718FDC120FEF7F1FC0120E7
:1035C800FEF712FDC520FEF7EBFC3020FEF70CFDE0
:1035D8003020FEF709FDC720FEF7E2FCB720FEF712
:1035E80003FD3620FEF7DCFC4820FEF7FDFC3A2000
:1035F800FEF7D6FC5520FEF7F7FCB120FEF7D0FC0D
:103608000020FEF7F1FC1A20FEF7EEFCB620FEF7CC
:10361800C7FC0A20FEF7E8FCA220FEF7E5FCF22032
:10362800FEF7BEFC0020FEF7DFFC2620FEF7B8FC04
:103638000120FEF7D9FCE020FEF7B2FC0F20FEF7D0
:10364800D3FC2A20FEF7D0FC2820FEF7CDFC08206A
:10365800FEF7CAFC0E20FEF7C7FC0820FEF7C4FCE4
:103668005420FEF7C1FCA920FEF7BEFC4320FEF75C
:10367800BBFC0A20FEF7B8FC0F20FEF7B5FC0020C3
:10368800FEF7B2FC0020FEF7AFFC0020FEF7ACFC12
:103698000020FEF7A9FCE120FEF782FC0020FEF7DF
:1036A800A3FC1520FEF7A0FC1720FEF79DFC0720C1
:1036B800FEF79AFC1120FEF797FC0620FEF794FC13
:1036C8002B20FEF791FC5620FEF78EFC3C20FEF7DF
:1036D8008BFC0520FEF788FC1020FEF785FC0F20E8
:1036E800FEF782FC3F20FEF77FFC3F20FEF77CFCC4
:1036F8000F20FEF779FC2B20FEF752FC0020FEF786
:1037080073FC0020FEF770FC0120FEF76DFC3F20E3
:10371800FEF76AFC2A20FEF743FC0020FEF764FC53
:103728000020FEF761FC0020FEF75EFCEF20FEF7AC
:103738005BFC1120FEF734FC7820FDF733FF2920CD
:10374800FEF72EFC02F096BB6D4B9B8847F2897200
:10375800934240F0D7801120FEF722FC7820FDF735
:1037680021FF3620FEF71CFC0020FEF73DFC3A2026
:10377800FEF716FC0520FEF737FCB220FEF710FC1A
:103788000C20FEF731FC0C20FEF72EFC0020FEF783
:103798002BFC3320FEF728FC3320FEF725FCB7204E
:1037A800FEF7FEFB3520FEF71FFCBB20FEF7F8FBFB
:1037B8003220FEF719FCC020FEF7F2FB0C20FEF7C2
:1037C80013FCC220FEF7ECFB0120FEF70DFCC32022
:1037D800FEF7E6FB1020FEF707FCC420FEF7E0FB2F
:1037E8002020FEF701FCC620FEF7DAFB0F20FEF7CB
:1037F800FBFBD020FEF7D4FBA420FEF7F5FBA120AD
:10380800FEF7F2FBE020FEF7CBFBD020FEF7ECFB47
:103818000020FEF7E9FB0220FEF7E6FB0720FEF793
:10382800E3FB0A20FEF7E0FB2820FEF7DDFB322051
:10383800FEF7DAFB4420FEF7D7FB4220FEF7D4FB65
:103848000620FEF7D1FB0E20FEF7CEFB1220FEF776
:10385800CBFB1420FEF7C8FB1720FEF7C5FBE120C1
:10386800FEF79EFBD020FEF7BFFB0020FEF7BCFB57
:103878000220FEF7B9FB0720FEF7B6FB0A20FEF789
:10388800B3FB2820FEF7B0FB3120FEF7ADFB542038
:10389800FEF7AAFB4720FEF7A7FB0E20FEF7A4FBC6
:1038A8001C20FEF7A1FB1720FEF79EFB1B20FEF74E
:1038B8009BFB1E20FEF798FB2A20FEF771FB0020D9
:1038C800FEF792FB0020FEF78FFB0020FEF78CFB33
:1038D800EF20FEF789FB2B20FEF762FB0020FEF7A6
:1038E80083FB0020FEF780FB0120FEF77DFB3F20D5
:1038F800FEF77AFB2920FEF753FB02F0BBBA00BFA4
:10390800E4000020034B9B8845F21032934240F0BC
:103918007C8701E0E4000020ED20FEF741FB012058
:10392800FEF762FBFE20FEF75FFBEE20FEF738FB9A
:10393800DE20FEF759FB2120FEF756FBF120FEF7AB
:103948002FFB0120FEF750FBDF20FEF729FB10209C
:10395800FEF74AFBC420FEF723FB8F20FEF744FB4B
:10396800C620FEF71DFB0020FEF73EFBE220FEF717
:103978003BFBE220FEF738FBE220FEF735FBBF20D9
:10398800FEF70EFBAA20FEF72FFBB020FEF708FB80
:103998000D20FEF729FB0020FEF726FB0D20FEF781
:1039A80023FB0020FEF720FB1120FEF71DFB002063
:1039B800FEF71AFB1920FEF717FB0020FEF714FB91
:1039C8002120FEF711FB0020FEF70EFB2D20FEF74D
:1039D8000BFB0020FEF708FB3D20FEF705FB00204F
:1039E800FEF702FB5D20FEF7FFFA0020FEF7FCFA67
:1039F8005D20FEF7F9FA0020FEF7F6FAB120FEF78F
:103A0800CFFA8020FEF7F0FA0020FEF7EDFA8B20BF
:103A1800FEF7EAFA0020FEF7E7FA9620FEF7E4FA46
:103A28000020FEF7E1FAB220FEF7BAFA0020FEF70E
:103A3800DBFA0020FEF7D8FA0220FEF7D5FA0020BC
:103A4800FEF7D2FA0320FEF7CFFA0020FEF7CCFAF1
:103A5800B320FEF7A5FA0020FEF7C6FA0020FEF70D
:103A6800C3FA0020FEF7C0FA0020FEF7BDFA0020D6
:103A7800FEF7BAFA0020FEF7B7FA0020FEF7B4FA0C
:103A88000020FEF7B1FA0020FEF7AEFA0020FEF79C
:103A9800ABFA0020FEF7A8FA0020FEF7A5FA0020EE
:103AA800FEF7A2FA0020FEF79FFA0020FEF79CFA24
:103AB8000020FEF799FA0020FEF796FA0020FEF79C
:103AC80093FA0020FEF790FA0020FEF78DFA002006
:103AD800FEF78AFA0020FEF787FA0020FEF784FA3C
:103AE8000020FEF781FAB420FEF75AFA8B20FEF781
:103AF8007BFA0020FEF778FA9620FEF775FA002088
:103B0800FEF772FAA120FEF76FFA0020FEF76CFAB2
:103B1800B520FEF745FA0220FEF766FA0020FEF708
:103B280063FA0320FEF760FA0020FEF75DFA04202E
:103B3800FEF75AFA0020FEF757FAB620FEF730FAD9
:103B48000020FEF751FA0020FEF74EFAB720FEF7E4
:103B580027FA0020FEF748FA0020FEF745FA3F2032
:103B6800FEF742FA0020FEF73FFA5E20FEF73CFA25
:103B78000020FEF739FA6420FEF736FA0020FEF737
:103B880033FA8C20FEF730FA0020FEF72DFAAC202D
:103B9800FEF72AFA0020FEF727FADC20FEF724FABF
:103BA8000020FEF721FA7020FEF71EFA0020FEF72B
:103BB8001BFA9020FEF718FA0020FEF715FAEB2002
:103BC800FEF712FA0020FEF70FFADC20FEF70CFAD7
:103BD8000020FEF709FAB820FEF7E2F90020FEF708
:103BE80003FA0020FEF700FA0020FEF7FDF9002096
:103BF800FEF7FAF90020FEF7F7F90020FEF7F4F9CE
:103C08000020FEF7F1F90020FEF7EEF9BA20FEF7E2
:103C1800C7F92420FEF7E8F90020FEF7E5F90020AF
:103C2800FEF7E2F90020FEF7DFF9C120FEF7B8F948
:103C38002020FEF7D9F90020FEF7D6F95420FEF728
:103C4800D3F90020FEF7D0F9FF20FEF7CDF90020C8
:103C5800FEF7CAF9C220FEF7A3F90A20FEF7C4F955
:103C68000020FEF7C1F90420FEF7BEF90020FEF798
:103C7800BBF9C320FEF794F93C20FEF7B5F9002004
:103C8800FEF7B2F93A20FEF7AFF90020FEF7ACF9DB
:103C98003920FEF7A9F90020FEF7A6F93720FEF72C
:103CA800A3F90020FEF7A0F93C20FEF79DF90020BB
:103CB800FEF79AF93620FEF797F90020FEF794F9F7
:103CC8003220FEF791F90020FEF78EF92F20FEF73B
:103CD8008BF90020FEF788F92C20FEF785F90020E3
:103CE800FEF782F92920FEF77FF90020FEF77CF91C
:103CF8002620FEF779F90020FEF776F92420FEF752
:103D080073F90020FEF770F92420FEF76DF9002002
:103D1800FEF76AF92320FEF767F90020FEF764F939
:103D28003C20FEF761F90020FEF75EF93620FEF729
:103D38005BF90020FEF758F93220FEF755F900200C
:103D4800FEF752F92F20FEF74FF90020FEF74CF945
:103D58002C20FEF749F90020FEF746F92920FEF746
:103D680043F90020FEF740F92620FEF73DF9002030
:103D7800FEF73AF92420FEF737F90020FEF734F968
:103D88002420FEF731F90020FEF72EF92320FEF754
:103D98002BF90020FEF728F9C420FEF701F962206C
:103DA800FEF722F90020FEF71FF90520FEF71CF99F
:103DB8000020FEF719F98420FEF716F90020FEF717
:103DC80013F9F020FEF710F90020FEF70DF918207E
:103DD800FEF70AF90020FEF707F9A420FEF704F918
:103DE8000020FEF701F91820FEF7FEF80020FEF784
:103DF800FBF85020FEF7F8F80020FEF7F5F80C2045
:103E0800FEF7F2F80020FEF7EFF81720FEF7ECF8BF
:103E18000020FEF7E9F89520FEF7E6F80020FEF707
:103E2800E3F8F320FEF7E0F80020FEF7DDF8E620DF
:103E3800FEF7DAF80020FEF7D7F8C520FEF7B0F84D
:103E48003220FEF7D1F80020FEF7CEF84420FEF726
:103E5800CBF80020FEF7C8F86520FEF7C5F800206B
:103E6800FEF7C2F87620FEF7BFF80020FEF7BCF890
:103E78008820FEF7B9F80020FEF7B6F8C620FEF74E
:103E88008FF82020FEF7B0F80020FEF7ADF81720D5
:103E9800FEF7AAF80020FEF7A7F80120FEF7A4F81D
:103EA8000020FEF7A1F8C720FEF77AF80020FEF7F9
:103EB8009BF80020FEF798F80020FEF795F8002000
:103EC800FEF792F8C820FEF76BF80020FEF78CF892
:103ED8000020FEF789F80020FEF786F80020FEF79C
:103EE80083F8C920FEF75CF80020FEF77DF8002073
:103EF800FEF77AF80020FEF777F80020FEF774F84E
:103F08000020FEF771F80020FEF76EF80020FEF79B
:103F18006BF80020FEF768F80020FEF765F800202F
:103F2800FEF762F80020FEF75FF80020FEF75CF865
:103F38000020FEF759F80020FEF756F80020FEF79B
:103F480053F80020FEF750F8E020FEF729F8162075
:103F5800FEF74AF80020FEF747F81C20FEF744F861
:103F68000020FEF741F82120FEF73EF80020FEF77A
:103F78003BF83620FEF738F80020FEF735F84620E3
:103F8800FEF732F80020FEF72FF85220FEF72CF843
:103F98000020FEF729F86420FEF726F80020FEF737
:103FA80023F87A20FEF720F80020FEF71DF88B2072
:103FB800FEF71AF80020FEF717F89920FEF714F814
:103FC8000020FEF711F8A820FEF70EF80020FEF7F3
:103FD8000BF8B920FEF708F80020FEF705F8C42012
:103FE800FEF702F80020FDF7FFFFCA20FDF7FCFFEF
:103FF8000020FDF7F9FFD220FDF7F6FF0020FDF7BE
:10400800F3FFD920FDF7F0FF0020FDF7EDFFE020DA
:10401800FDF7EAFF0020FDF7E7FFF320FDF7E4FFD7
:104028000020FDF7E1FFE120FDF7BAFF1620FDF7BC
:10403800DBFF0020FDF7D8FF1C20FDF7D5FF00208F
:10404800FDF7D2FF2220FDF7CFFF0020FDF7CCFFC0
:104058003620FDF7C9FF0020FDF7C6FF4520FDF714
:10406800C3FF0020FDF7C0FF5220FDF7BDFF002071
:10407800FDF7BAFF6420FDF7B7FF0020FDF7B4FF96
:104088007A20FDF7B1FF0020FDF7AEFF8B20FDF78A
:10409800ABFF0020FDF7A8FF9920FDF7A5FF002042
:1040A800FDF7A2FFA820FDF79FFF0020FDF79CFF6A
:1040B800B920FDF799FF0020FDF796FFC420FDF712
:1040C80093FF0020FDF790FFCA20FDF78DFF002029
:1040D800FDF78AFFD220FDF787FF0020FDF784FF58
:1040E800D820FDF781FF0020FDF77EFFE020FDF7D7
:1040F8007BFF0020FDF778FFF320FDF775FF002018
:10410800FDF772FFE220FDF74BFF0520FDF76CFF7E
:104118000020FDF769FF0B20FDF766FF0020FDF783
:1041280063FF1B20FDF760FF0020FDF75DFF3420D3
:10413800FDF75AFF0020FDF757FF4420FDF754FF15
:104148000020FDF751FF4F20FDF74EFF0020FDF73F
:104158004BFF6120FDF748FF0020FDF745FF792060
:10416800FDF742FF0020FDF73FFF8820FDF73CFFE9
:104178000020FDF739FF9720FDF736FF0020FDF7F7
:1041880033FFA620FDF730FF0020FDF72DFFB720F5
:10419800FDF72AFF0020FDF727FFC220FDF724FFC7
:1041A8000020FDF721FFC720FDF71EFF0020FDF7C7
:1041B8001BFFD120FDF718FF0020FDF715FFD620C3
:1041C800FDF712FF0020FDF70FFFDD20FDF70CFFC4
:1041D8000020FDF709FFF320FDF706FF0020FDF79B
:1041E80003FFE320FDF7DCFE0520FDF7FDFE0020C0
:1041F800FDF7FAFE0A20FDF7F7FE0020FDF7F4FEB2
:104208001C20FDF7F1FE0020FDF7EEFE3320FDF740
:10421800EBFE0020FDF7E8FE4420FDF7E5FE002058
:10422800FDF7E2FE5020FDF7DFFE0020FDF7DCFE83
:104238006220FDF7D9FE0020FDF7D6FE7820FDF7B5
:10424800D3FE0020FDF7D0FE8820FDF7CDFE00202C
:10425800FDF7CAFE9720FDF7C7FE0020FDF7C4FE54
:10426800A620FDF7C1FE0020FDF7BEFEB720FDF732
:10427800BBFE0020FDF7B8FEC220FDF7B5FE00200A
:10428800FDF7B2FEC720FDF7AFFE0020FDF7ACFE3C
:10429800D120FDF7A9FE0020FDF7A6FED520FDF7E9
:1042A800A3FE0020FDF7A0FEDD20FDF79DFE002007
:1042B800FDF79AFEF320FDF797FE0020FDF794FE28
:1042C800E420FDF76DFE0120FDF78EFE0020FDF7CE
:1042D8008BFE0120FDF788FE0020FDF785FE0220F9
:1042E800FDF782FE0020FDF77FFE2A20FDF77CFE09
:1042F8000020FDF779FE3C20FDF776FE0020FDF753
:1043080073FE4B20FDF770FE0020FDF76DFE5D206B
:10431800FDF76AFE0020FDF767FE7420FDF764FED6
:104328000020FDF761FE8420FDF75EFE0020FDF70A
:104338005BFE9320FDF758FE0020FDF755FEA220F6
:10434800FDF752FE0020FDF74FFEB320FDF74CFEAF
:104358000020FDF749FEBE20FDF746FE0020FDF7D0
:1043680043FEC420FDF740FE0020FDF73DFECD20B2
:10437800FDF73AFE0020FDF737FED320FDF734FEA7
:104388000020FDF731FEDD20FDF72EFE0020FDF7B1
:104398002BFEF320FDF728FE0020FDF725FEE52083
:1043A800FDF7FEFD0020FDF71FFE0020FDF71CFEB7
:1043B8000020FDF719FE0020FDF716FE0220FDF78C
:1043C80013FE0020FDF710FE2920FDF70DFE00204A
:1043D800FDF70AFE3C20FDF707FE0020FDF704FE6E
:1043E8004B20FDF701FE0020FDF7FEFD5D20FDF7E7
:1043F800FBFD0020FDF7F8FD7420FDF7F5FD00201A
:10440800FDF7F2FD8420FDF7EFFD0020FDF7ECFD40
:104418009320FDF7E9FD0020FDF7E6FDA220FDF75A
:10442800E3FD0020FDF7E0FDB320FDF7DDFD0020F2
:10443800FDF7DAFDBE20FDF7D7FD0020FDF7D4FD1E
:10444800C420FDF7D1FD0020FDF7CEFDCD20FDF7FE
:10445800CBFD0020FDF7C8FDD320FDF7C5FD0020EA
:10446800FDF7C2FDDC20FDF7BFFD0020FDF7BCFD18
:10447800F320FDF7B9FD0020FDF7B6FDE620FDF7B6
:104488008FFD1120FDF7B0FD0020FDF7ADFD3420B4
:10449800FDF7AAFD0020FDF7A7FD5620FDF7A4FDB6
:1044A8000020FDF7A1FD7620FDF79EFD0020FDF719
:1044B8009BFD7720FDF798FD0020FDF795FD662010
:1044C800FDF792FD0020FDF78FFD8820FDF78CFD9C
:1044D8000020FDF789FD9920FDF786FD0020FDF7F6
:1044E80083FDBB20FDF780FD0020FDF77DFD9920B1
:1044F800FDF77AFD0020FDF777FD6620FDF774FDD6
:104508000020FDF771FD5520FDF76EFD0020FDF739
:104518006BFD5520FDF768FD0020FDF765FD452082
:10452800FDF762FD0020FDF75FFD4320FDF75CFD10
:104538000020FDF759FD4420FDF756FD0020FDF74A
:1045480053FDE720FDF72CFD3220FDF74DFD00203F
:10455800FDF74AFD5520FDF747FD0020FDF744FD16
:104568007620FDF741FD0020FDF73EFD6620FDF7B2
:104578003BFD0020FDF738FD6720FDF735FD0020E5
:10458800FDF732FD6720FDF72FFD0020FDF72CFD1C
:104598008720FDF729FD0020FDF726FD9920FDF76E
:1045A80023FD0020FDF720FDBB20FDF71DFD0020A9
:1045B800FDF71AFD9920FDF717FD0020FDF714FD02
:1045C8007720FDF711FD0020FDF70EFD4420FDF7D3
:1045D8000BFD0020FDF708FD5620FDF705FD002026
:1045E800FDF702FD2320FDF7FFFC0020FDF7FCFC92
:1045F8003320FDF7F9FC0020FDF7F6FC4520FDF718
:10460800F3FC0020FDF7F0FCE820FDF7C9FC0020D2
:10461800FDF7EAFC0020FDF7E7FC9920FDF7E4FC34
:104628000020FDF7E1FC8720FDF7DEFC0020FDF708
:10463800DBFC8820FDF7D8FC0020FDF7D5FC7720AF
:10464800FDF7D2FC0020FDF7CFFC6620FDF7CCFC7F
:104658000020FDF7C9FC8820FDF7C6FC0020FDF707
:10466800C3FCAA20FDF7C0FC0020FDF7BDFCBB2061
:10467800FDF7BAFC0020FDF7B7FC9920FDF7B4FC64
:104688000020FDF7B1FC6620FDF7AEFC0020FDF729
:10469800ABFC5520FDF7A8FC0020FDF7A5FC552034
:1046A800FDF7A2FC0020FDF79FFC4420FDF79CFCD1
:1046B8000020FDF799FC4420FDF796FC0020FDF74B
:1046C80093FC5520FDF790FC0020FDF78DFCE920B8
:1046D800FDF766FCAA20FDF787FC0020FDF784FCA7
:1046E8000020FDF781FC0020FDF77EFC0020FDF78F
:1046F80057FCAA20FDF778FCCF20FDF751FC0020DD
:10470800FDF772FC0020FDF76FFC0020FDF76CFC44
:104718000020FDF769FC0020FDF766FC0020FDF78E
:1047280063FC0020FDF760FC0020FDF75DFC002025
:10473800FDF75AFC0020FDF757FC0020FDF754FC5C
:104748000020FDF751FC0020FDF74EFC0020FDF78E
:104758004BFC0020FDF748FC0020FDF745FC00203D
:10476800FDF742FCF020FDF71BFC0020FDF73CFCA8
:104778005020FDF739FC0020FDF736FC0020FDF73E
:1047880033FC0020FDF730FCF320FDF709FC002086
:10479800FDF72AFCF920FDF703FC0620FDF724FCB1
:1047A8001020FDF721FC2920FDF71EFC0020FDF755
:1047B8001BFC3A20FDF7F4FB5520FDF715FC1120F2
:1047C800FDF7EEFB6420FCF7EDFE2920FDF7E8FB82
:1047D8003520FDF7E5FB0020FDF706FC5120FDF72D
:1047E800DFFBFF20FDF700FC5320FDF7D9FB2C2051
:1047F800FDF7FAFB5520FDF7D3FB8220FDF7F4FB0C
:104808002C20FDF7CDFB01F035BB044B9B8845F20E
:104818001052934240F0818702E000BFE40000207C
:1048280055214FF47040FDF751FCAA214FF20100C9
:10483800FDF74CFC52214FF20200FDF747FC08211E
:104848004FF20300FDF742FC01214FF20400FDF78F
:104858003DFC0D214FF43040FDF738FC0D214BF2A3
:104868000100FDF733FC0D214BF20200FDF72EFC91
:1048780034214FF43640FDF729FC34214BF2016016
:10488800FDF724FC34214BF20260FDF71FFC0D21DB
:104898004FF43140FDF71AFC0D214BF20110FDF7E2
:1048A80015FC0D214BF20210FDF710FC34214FF4DA
:1048B8003740FDF70BFC34214BF20170FDF706FC85
:1048C80034214BF20270FDF701FC00214FF4324015
:1048D800FDF7FCFB00214BF20120FDF7F7FB00215F
:1048E8004BF20220FDF7F2FB24214FF43840FDF78C
:1048F800EDFB24214BF60100FDF7E8FB24214BF6E4
:104908000200FDF7E3FB01214FF43F40FDF7DEFB1A
:104918000F214FF43340FDF7D9FB0F214BF2013043
:10492800FDF7D4FB0F214BF20230FDF7CFFB34210A
:104938004FF43940FDF7CAFB34214BF60110FDF75F
:10494800C5FB34214BF60210FDF7C0FB08214FF4DC
:104958003540FDF7BBFB08214BF20150FDF7B6FBD4
:1049680008214BF20250FDF7B1FB03214FF44240FE
:10497800FDF7ACFB24214FF43A40FDF7A7FB2421B7
:104988004BF60120FDF7A2FB24214BF60220FDF790
:104998009DFB00214FF43C40FDF798FB78214BF636
:1049A8000140FDF793FB00214BF60240FDF78EFB1B
:1049B80000214FF43D40FDF789FB78214BF601506B
:1049C800FDF784FB00214BF60250FDF77FFB002129
:1049D8004FF43E40FDF77AFB64214BF60160FDF78A
:1049E80075FB00214FF45140FDF770FB33214DF268
:1049F8000110FDF76BFB00214DF20210FDF766FB7D
:104A080034214DF20310FDF761FB00214DF2041033
:104A1800FDF75CFB3A214DF20510FDF757FB00212D
:104A28004DF20610FDF752FB4A214DF20710FDF733
:104A38004DFB00214DF20810FDF748FB5C214DF2BB
:104A48000910FDF743FB00214DF20A10FDF73EFB6C
:104A580081214DF20B10FDF739FB00214DF20C10AE
:104A6800FDF734FBA6214DF20D10FDF72FFB0021B9
:104A78004DF20E10FDF72AFBE5214DF20F10FDF760
:104A880025FB01214DF21010FDF720FB13214DF2FB
:104A98001110FDF71BFB01214DF21210FDF716FB5B
:104AA80054214DF21310FDF711FB01214DF21410A2
:104AB800FDF70CFB82214DF21510FDF707FB0121D4
:104AC8004DF21610FDF702FBCA214DF21710FDF743
:104AD800FDFA02214DF21810FDF7F8FA00214DF207
:104AE8001910FDF7F3FA02214DF21A10FDF7EEFA4C
:104AF80001214DF21B10FDF7E9FA02214DF21C10BD
:104B0800FDF7E4FA34214DF21D10FDF7DFFA02211A
:104B18004DF21E10FDF7DAFA67214DF21F10FDF76E
:104B2800D5FA02214DF22010FDF7D0FA84214DF27A
:104B38002110FDF7CBFA02214DF22210FDF7C6FA3B
:104B4800A4214DF22310FDF7C1FA02214DF22410E1
:104B5800FDF7BCFAB7214DF22510FDF7B7FA02218F
:104B68004DF22610FDF7B2FACF214DF22710FDF7CE
:104B7800ADFA02214DF22810FDF7A8FADE214DF218
:104B88002910FDF7A3FA02214DF22A10FDF79EFA2B
:104B9800F2214DF22B10FDF799FA02214DF22C105B
:104BA800FDF794FAFE214DF22D10FDF78FFA03213F
:104BB8004DF22E10FDF78AFA10214DF22F10FDF755
:104BC80085FA03214DF23010FDF780FA33214DF2BA
:104BD8003110FDF77BFA03214DF23210FDF776FA1A
:104BE8006D214DF23310FDF771FA00214FF4524058
:104BF800FDF76CFA33214DF20120FDF767FA002129
:104C08004DF20220FDF762FA34214DF20320FDF740
:104C18005DFA00214DF20420FDF758FA3A214DF2D1
:104C28000520FDF753FA00214DF20620FDF74EFA54
:104C38004A214DF20720FDF749FA00214DF20820DC
:104C4800FDF744FA5C214DF20920FDF73FFA0021F7
:104C58004DF20A20FDF73AFA81214DF20B20FDF7BB
:104C680035FA00214DF20C20FDF730FAA6214DF25D
:104C78000D20FDF72BFA00214DF20E20FDF726FA44
:104C8800E5214DF20F20FDF721FA01214DF2102008
:104C9800FDF71CFA13214DF21120FDF717FA012137
:104CA8004DF21220FDF712FA54214DF21320FDF7B0
:104CB8000DFA01214DF21420FDF708FA82214DF278
:104CC8001520FDF703FA01214DF21620FDF7FEF934
:104CD800CA214DF21720FDF7F9F902214DF21820EB
:104CE800FDF7F4F900214DF21920FDF7EFF9022143
:104CF8004DF21A20FDF7EAF901214DF21B20FDF7CC
:104D0800E5F902214DF21C20FDF7E0F934214DF2BE
:104D18001D20FDF7DBF902214DF21E20FDF7D6F923
:104D280067214DF21F20FDF7D1F902214DF2202015
:104D3800FDF7CCF984214DF22120FDF7C7F90221B6
:104D48004DF22220FDF7C2F9A4214DF22320FDF7F0
:104D5800BDF902214DF22420FDF7B8F9B7214DF233
:104D68002520FDF7B3F902214DF22620FDF7AEF913
:104D7800CF214DF22720FDF7A9F902214DF2282075
:104D8800FDF7A4F9DE214DF22920FDF79FF9022154
:104D98004DF22A20FDF79AF9F2214DF22B20FDF76A
:104DA80095F902214DF22C20FDF790F9FE214DF2E4
:104DB8002D20FDF78BF903214DF22E20FDF786F902
:104DC80010214DF22F20FDF781F903214DF23020FB
:104DD800FDF77CF933214DF23120FDF777F90321F6
:104DE8004DF23220FDF772F96D214DF23320FDF7B7
:104DF8006DF900214FF45340FDF768F933214DF266
:104E08000130FDF763F900214DF20230FDF75EF93C
:104E180034214DF20330FDF759F900214DF20430E9
:104E2800FDF754F93A214DF20530FDF74FF900210D
:104E38004DF20630FDF74AF94A214DF20730FDF7E9
:104E480045F900214DF20830FDF740F95C214DF29B
:104E58000930FDF73BF900214DF20A30FDF736F92C
:104E680081214DF20B30FDF731F900214DF20C3064
:104E7800FDF72CF9A6214DF20D30FDF727F9002199
:104E88004DF20E30FDF722F9E5214DF20F30FDF716
:104E98001DF901214DF21030FDF718F913214DF2DB
:104EA8001130FDF713F901214DF21230FDF70EF91B
:104EB80054214DF21330FDF709F901214DF2143058
:104EC800FDF704F982214DF21530FDF7FFF80121B5
:104ED8004DF21630FDF7FAF8CA214DF21730FDF7FA
:104EE800F5F802214DF21830FDF7F0F800214DF2E7
:104EF8001930FDF7EBF802214DF21A30FDF7E6F80C
:104F080001214DF21B30FDF7E1F802214DF21C3072
:104F1800FDF7DCF834214DF21D30FDF7D7F80221FA
:104F28004DF21E30FDF7D2F867214DF21F30FDF724
:104F3800CDF802214DF22030FDF7C8F884214DF25A
:104F48002130FDF7C3F802214DF22230FDF7BEF8FB
:104F5800A4214DF22330FDF7B9F802214DF2243097
:104F6800FDF7B4F8B7214DF22530FDF7AFF802216F
:104F78004DF22630FDF7AAF8CF214DF22730FDF784
:104F8800A5F802214DF22830FDF7A0F8DE214DF2F8
:104F98002930FDF79BF802214DF22A30FDF796F8EB
:104FA800F2214DF22B30FDF791F802214DF22C3011
:104FB800FDF78CF8FE214DF22D30FDF787F803211F
:104FC8004DF22E30FDF782F810214DF22F30FDF70B
:104FD8007DF803214DF23030FDF778F833214DF29A
:104FE8003130FDF773F803214DF23230FDF76EF8DA
:104FF8006D214DF23330FDF769F800214FF454402C
:10500800FDF764F833214DF20140FDF75FF8002108
:105018004DF20240FDF75AF834214DF20340FDF7F6
:1050280055F800214DF20440FDF750F83A214DF2B1
:105038000540FDF74BF800214DF20640FDF746F814
:105048004A214DF20740FDF741F800214DF2084092
:10505800FDF73CF85C214DF20940FDF737F80021D7
:105068004DF20A40FDF732F881214DF20B40FDF771
:105078002DF800214DF20C40FDF728F8A6214DF23D
:105088000D40FDF723F800214DF20E40FDF71EF804
:10509800E5214DF20F40FDF719F801214DF21040BE
:1050A800FDF714F813214DF21140FDF70FF8012117
:1050B8004DF21240FDF70AF854214DF21340FDF766
:1050C80005F801214DF21440FDF700F882214DF258
:1050D8001540FCF7FBFF01214DF21640FCF7F6FFE7
:1050E800CA214DF21740FCF7F1FF02214DF218409A
:1050F800FCF7ECFF00214DF21940FCF7E7FF022115
:105108004DF21A40FCF7E2FF01214DF21B40FCF77B
:10511800DDFF02214DF21C40FCF7D8FF34214DF28F
:105128001D40FCF7D3FF02214DF21E40FCF7CEFFD5
:1051380067214DF21F40FCF7C9FF02214DF22040C4
:10514800FCF7C4FF84214DF22140FCF7BFFF022188
:105158004DF22240FCF7BAFFA4214DF22340FCF7A0
:10516800B5FF02214DF22440FCF7B0FFB7214DF204
:105178002540FCF7ABFF02214DF22640FCF7A6FFC5
:10518800CF214DF22740FCF7A1FF02214DF2284024
:10519800FCF79CFFDE214DF22940FCF797FF022126
:1051A8004DF22A40FCF792FFF2214DF22B40FCF71A
:1051B8008DFF02214DF22C40FCF788FFFE214DF2B5
:1051C8002D40FCF783FF03214DF22E40FCF77EFFB4
:1051D80010214DF22F40FCF779FF03214DF23040AA
:1051E800FCF774FF33214DF23140FCF76FFF0321C8
:1051F8004DF23240FCF76AFF6D214DF23340FCF767
:1052080065FF00214FF45540FCF760FF33214DF254
:105218000150FCF75BFF00214DF20250FCF756FFEE
:1052280034214DF20350FCF751FF00214DF2045098
:10523800FCF74CFF3A214DF20550FCF747FF0021DF
:105248004DF20650FCF742FF4A214DF20750FCF799
:105258003DFF00214DF20850FCF738FF5C214DF26C
:105268000950FCF733FF00214DF20A50FCF72EFFDE
:1052780081214DF20B50FCF729FF00214DF20C5013
:10528800FCF724FFA6214DF20D50FCF71FFF00216B
:105298004DF20E50FCF71AFFE5214DF20F50FCF7C6
:1052A80015FF01214DF21050FCF710FF13214DF2AC
:1052B8001150FCF70BFF01214DF21250FCF706FFCD
:1052C80054214DF21350FCF701FF01214DF2145007
:1052D800FCF7FCFE82214DF21550FCF7F7FE012188
:1052E8004DF21650FCF7F2FECA214DF21750FCF7AA
:1052F800EDFE02214DF21850FCF7E8FE00214DF2B8
:105308001950FCF7E3FE02214DF21A50FCF7DEFEBD
:1053180001214DF21B50FCF7D9FE02214DF21C5021
:10532800FCF7D4FE34214DF21D50FCF7CFFE0221CC
:105338004DF21E50FCF7CAFE67214DF21F50FCF7D4
:10534800C5FE02214DF22050FCF7C0FE84214DF22B
:105358002150FCF7BBFE02214DF22250FCF7B6FEAD
:10536800A4214DF22350FCF7B1FE02214DF2245046
:10537800FCF7ACFEB7214DF22550FCF7A7FE022141
:105388004DF22650FCF7A2FECF214DF22750FCF734
:105398009DFE02214DF22850FCF798FEDE214DF2C9
:1053A8002950FCF793FE02214DF22A50FCF78EFE9D
:1053B800F2214DF22B50FCF789FE02214DF22C50C0
:1053C800FCF784FEFE214DF22D50FCF77FFE0321F1
:1053D8004DF22E50FCF77AFE10214DF22F50FCF7BB
:1053E80075FE03214DF23050FCF770FE33214DF26B
:1053F8003150FCF76BFE03214DF23250FCF766FE8C
:105408006D214DF23350FCF761FE00214FF45640F8
:10541800FCF75CFE33214DF20160FCF757FE0021DA
:105428004DF20260FCF752FE34214DF20360FCF7A6
:105438004DFE00214DF20460FCF748FE3A214DF282
:105448000560FCF743FE00214DF20660FCF73EFEC6
:105458004A214DF20760FCF739FE00214DF2086041
:10546800FCF734FE5C214DF20960FCF72FFE0021A9
:105478004DF20A60FCF72AFE81214DF20B60FCF721
:1054880025FE00214DF20C60FCF720FEA6214DF20E
:105498000D60FCF71BFE00214DF20E60FCF716FEB6
:1054A800E5214DF20F60FCF711FE01214DF210606D
:1054B800FCF70CFE13214DF21160FCF707FE0121E9
:1054C8004DF21260FCF702FE54214DF21360FCF716
:1054D800FDFD01214DF21460FCF7F8FD82214DF22B
:1054E8001560FCF7F3FD01214DF21660FCF7EEFDA7
:1054F800CA214DF21760FCF7E9FD02214DF2186050
:10550800FCF7E4FD00214DF21960FCF7DFFD0221F4
:105518004DF21A60FCF7DAFD01214DF21B60FCF731
:10552800D5FD02214DF21C60FCF7D0FD34214DF26F
:105538001D60FCF7CBFD02214DF21E60FCF7C6FD95
:1055480067214DF21F60FCF7C1FD02214DF220607A
:10555800FCF7BCFD84214DF22160FCF7B7FD022168
:105568004DF22260FCF7B2FDA4214DF22360FCF756
:10557800ADFD02214DF22460FCF7A8FDB7214DF2E4
:105588002560FCF7A3FD02214DF22660FCF79EFD85
:10559800CF214DF22760FCF799FD02214DF22860DA
:1055A800FCF794FDDE214DF22960FCF78FFD022106
:1055B8004DF22A60FCF78AFDF2214DF22B60FCF7D0
:1055C80085FD02214DF22C60FCF780FDFE214DF295
:1055D8002D60FCF77BFD03214DF22E60FCF776FD74
:1055E80010214DF22F60FCF771FD03214DF2306060
:1055F800FCF76CFD33214DF23160FCF767FD0321A8
:105608004DF23260FCF762FD6D214DF23360FCF71C
:105618005DFD55214FF47040FCF758FDAA214FF26B
:105628000100FCF753FD52214FF20200FCF74EFD3A
:1056380008214FF20300FCF749FD00214FF2040056
:10564800FCF744FDCC214FF43140FCF73FFD00212D
:105658004BF20110FCF73AFD05214FF43640FCF7F8
:1056680035FD70214FF43740FCF730FD70214BF2C7
:105678000170FCF72BFD01214FF43840FCF726FDA3
:1056880003214BF60100FCF721FD03214BF6020034
:10569800FCF71CFD03214BF60300FCF717FD022164
:1056A8004FF43C40FCF712FD00214BF60140FCF79B
:1056B8000DFD00214BF60240FCF708FDD0214FF408
:1056C8004940FCF703FD02214CF60110FCF7FEFCF3
:1056D80050214CF60210FCF7F9FC50214CF603104F
:1056E800FCF7F4FC50214CF60410FCF7EFFC002109
:1056F8004FF45450FCF7EAFC55214FF46850FCF77E
:10570800E5FC4FF48850FCF74BFC7820FBF70CFFC6
:105718004FF42450FCF744FCACE3A84B9B8841F6BB
:105728006312934240F0A683E220FCF739FCA44BB5
:105738004FF480721A61A24B4FF400725A61A14B68
:105748001D22DA609E4B80225A619D4B80221A618D
:105758009B4B4FF400721A61994B4FF480721A6197
:10576800974B4FF400725A61964B0222DA60944BC1
:1057780080225A61924B80221A61914B4FF4007239
:105788001A618F4B4FF480721A618D4B4FF400727F
:105798005A618C4B0422DA60894B80225A61884B0B
:1057A80080221A61864B4FF400721A616420FBF75D
:1057B800BBFEE020FCF7F4FB814B4FF480721A61CA
:1057C8007F4B4FF400725A617E4B0122DA607C4BAA
:1057D80080225A617A4B80221A61794B4FF4007209
:1057E8001A610A20FBF7DEFEE020FCF7D9FB744BB8
:1057F8004FF480721A61724B4FF400725A61714B08
:105808000322DA606E4B80225A616D4B80221A6146
:105818006B4B4FF400721A610C20FBF7C3FE01209A
:10582800FCF7BEFB0A20FBF7BDFEE620FCF7B8FB41
:10583800634B4FF480721A61614B4FF400725A61E6
:10584800604B2F22DA605E4B80225A615C4B8022CB
:105858001A615B4B4FF400721A61594B4FF4807216
:105868001A61574B4FF400725A61564BFF22DA60A7
:10587800534B80225A61524B80221A61504B4FF48D
:1058880000721A614E4B4FF480721A614C4B4FF400
:1058980000725A614B4BFF22DA60494B80225A61F1
:1058A800474B80221A61464B4FF400721A61B020B0
:1058B800FCF776FB424B4FF480721A61404B4FF471
:1058C80000725A613F4B2022DA603D4B80225A61B8
:1058D8003B4B80221A613A4B4FF400721A61384BE5
:1058E8004FF480721A61364B4FF400725A61354B8F
:1058F8000022DA60324B80225A61314B80221A61D1
:105908002F4B4FF400721A612D4B4FF480721A61BD
:105918002B4B4FF400725A612A4B0322DA60284B52
:1059280080225A61264B80221A61254B4FF400725F
:105938001A61234B4FF480721A61214B4FF40072A5
:105948005A61204B40F21F32DA601D4B80225A61A7
:105958001B4B80221A611A4B4FF400721A61184BC4
:105968004FF480721A61164B4FF400725A61154B4E
:105978000122DA60124B80225A61114B80221A618F
:105988000F4B4FF400721A610D4B4FF480721A617D
:105998000B4B4FF400725A610A4B40F2DF12DA6087
:1059A800074B80225A61064B80221A61044B4FF440
:1059B80000721A61024B4FF4807205E0E400002087
:1059C80000100140000C01401A61A34B4FF4007213
:1059D8005A61A24B0022DA609F4B80225A619E4B8B
:1059E80080221A619C4B4FF400721A61B420FCF7B4
:1059F800D7FA994B4FF480721A61974B4FF40072A3
:105A08005A61964B0422DA60934B80225A61924B7A
:105A180080221A61904B4FF400721A618E4B4FF43A
:105A280080721A618C4B4FF400725A618B4B40F2B2
:105A38001F42DA60884B80225A61874B80221A61A4
:105A4800854B4FF400721A61834B4FF480721A61D0
:105A5800814B4FF400725A61804B0022DA607E4B12
:105A680080225A617C4B80221A617B4B4FF4007272
:105A78001A61794B4FF480721A61774B4FF40072B8
:105A88005A61764B2E22DA60734B80225A61724B30
:105A980080221A61704B4FF400721A616E4B4FF4FA
:105AA80080721A616C4B4FF400725A616B4B002282
:105AB800DA60694B80225A61674B80221A61664B13
:105AC8004FF400721A61644B4FF480721A61624B92
